:10000000C030002051800000D5800000017F00003A
:1000100000000000000000000000000000000000E0
:10002000000000000000000000000000D58000007B
:100030000000000000000000D5800000018C0000DE
:10004000D5800000D5800000D5800000D58000005C
:1000500061620000D5800000D5800000D5800000DE
:10006000D5800000E1680000F56800000969000023
:100070001D6900003169000045690000D58000005D
:10008000D5800000D5800000317F0000457F000052
:10009000597F00006D7F0000817F0000D580000047
:1000A000D5800000D5800000D5800000D5800000FC
:1000B00008B5064B064803331B1A062B00D808BDAB
:1000C000044B002BFBD09847F9E7C0469C01010088
:1000D0009C0101000000000008B50748074B1B1AEF
:1000E0009B10DA0FD318591000D108BD044A002A1A
:1000F000FBD09047F9E7C0469C0101009C0101003C
:100100000000000010B5074C2378002B09D1FFF741
:10011000CFFF054B002B02D0044800E000BF0123B5
:10012000237010BDF8080020000000009C010100B1
:1001300008B5094B002B03D00848094900E000BF6F
:1001400008480368002B03D0074B002B00D09847CA
:10015000FFF7C2FF08BDC046000000009C0101007F
:10016000FC0800209C0101000000000080B582B066
:1001700000AF021CFB1D1A70064BFA1D1278111CF1
:100180001F220A400121081C9040021C1A60BD4633
:1001900002B080BD00E100E080B584B000AF7860BF
:1001A0007B681B68FB60FB68DA69072313405A1EF3
:1001B0009341DBB2181CBD4604B080BD80B582B04F
:1001C00000AF7860C0467B68181C044B9847031C3E
:1001D000002BF8D1BD4602B080BDC0469901000099
:1001E00080B582B000AF78607B6864221A607B685B
:1001F000194A5A607B6800229A607B6800221A7351
:100200007B6800221A767B68802292031A617B68E1
:1002100001225242DA827B68012252429A827B6832
:100220000022DA617B6800221A627A6824230021A6
:10023000D1547B6800229A627A682C230021D15421
:100240007A682D230021D1547A682E230021D154BD
:10025000BD4602B080BDC046480D000080B584B0E8
:1002600000AF78607B681B68BB600023FB607B6825
:10027000181C154B9847BB681B6802221A43BB68C1
:100280001A607B681B68181C104B9847031C181CCD
:100290000F4B98470CE0FB680133FB607B68DB8801
:1002A0001A1CFB689A4203D8BB6810225A8307E0E5
:1002B000BB689B691B0C9BB21A1C10231340EAD02D
:1002C000BD4604B080BDC046BD0100008D68000081
:1002D0006D01000080B58CB000AF3B1C181C0D4BAD
:1002E00098473B1C0C4ADA823B1C0C4ADA613B1CE7
:1002F0000B4A1A620B490C4A3B1C081C111C1A1CA5
:100300000A4B9847074B181C094B9847BD460CB041
:1003100080BDC046E1010000102700000300080076
:1003200003000900A00F0020001000420D0900008A
:100330005D02000080B58AB000AFFB1D1870BB1DC8
:1003400019707B1D1A70FA1DBB1D12781B781343A0
:10035000DAB23B1C24331A703B1C243300225A703F
:100360003B1C18334F221A803B1C183301225A8041
:100370003B1C18333A1C24325A603B1C18330022B1
:100380001A723B1C183300225A723B1C183300228D
:100390009A723B1C0C334F221A807B1D1B789AB239
:1003A0003B1C0C335A803B1C0C333A1C24325A60E1
:1003B0003B1C0C3300221A723B1C0C3300225A7275
:1003C0003B1C0C3300229A720E4A3B1C1833101C43
:1003D000191C0D4B98470B4A3B1C0C33101C191C65
:1003E0000A4B98473B1C24331B781B029AB23B1CD8
:1003F00024335B7813439BB29BB2181CBD460AB0F2
:1004000080BDC046A00F00204D0F00009D0D0000D4
:10041000B0B586B000AF3C1C16340020002102228B
:100420005F4B9847031C2380544C534BBB60FC60CC
:10043000FB1D01221A703B1C16331B881BB2002BBC
:100440000DDAFB1D1B785B42DAB2FB1D1A703B1CF8
:1004500016333A1C163212885204520C1A80514B31
:100460001B78012B26D002DC002B05D07CE0022B70
:100470003ED0032B5AD077E03B1C16333A1C163281
:100480001288D2091A803B1C16331B88FA1D127879
:1004900052B25A43444B101C9847031C0C1C434D4A
:1004A000181C211C364A374BA847031C0C1CBB6088
:1004B000FC6059E03B1C16333A1C16321288920934
:1004C0001A803B1C16331B88FA1D127852B25A430D
:1004D000354B101C9847031C0C1C344D181C211C58
:1004E000294A2A4BA847031C0C1CBB60FC603BE05C
:1004F0003B1C16333A1C1632128852091A803B1CD8
:1005000016331B88FA1D127852B25A43264B101C20
:100510009847031C0C1C254D181C211C1C4A1D4B04
:10052000A847031C0C1CBB60FC601DE03B1C163381
:100530003A1C1632128812091A803B1C16331B888B
:10054000FA1D127852B25A43174B101C9847031CDD
:100550000C1C164D181C211C0F4A104BA847031CDD
:100560000C1CBB60FC60C046BB68FC68181C211CEE
:10057000BD4606B0B0BDC04600000000000000004F
:10058000000000000000E03F000000000000D03F3D
:10059000000000000000C03F000000000000B03F6D
:1005A0003503000014090020559A00005D8E0000FC
:1005B00080B582B000AF78607B6800221A70BD46BB
:1005C00002B080BD80B582B000AF021C3960FB1D57
:1005D0001A70FB1D1B78012B0AD0022B0FD0002BA9
:1005E00014D10E4B0D4A91693A680A439A610FE0A3
:1005F0000A4B0A4AD1693A680A43DA6108E0074BB4
:10060000064A116A3A680A431A6201E0172300E0B9
:100610000023181CBD4602B080BDC0460004004047
:1006200080B582B000AF78607B6880221A707B68EA
:1006300000225A707B6801229A707B680022DA706F
:10064000BD4602B080BDC04680B500AF064B1B68FA
:100650001B021B0EDBB21A1C022313405A1E9341CD
:10066000DBB2181CBD4680BD0020004180B584B0BF
:1006700000AF78607B681B68FB60FB68DA69072362
:1006800013405A1E9341DBB2181CBD4604B080BD16
:1006900080B582B000AF7860C0467B68181C044B00
:1006A0009847031C002BF8D1BD4602B080BDC04660
:1006B0006D06000090B58DB000AF786039603B1CCE
:1006C000273300221A707B681B68BB617B681B683C
:1006D0007B613C1C13347B69181C854B9847031CB9
:1006E00023703B1C0833181C824B98473B68DB691E
:1006F0003B623B681B6AFB613B6A002B06D17B694E
:10070000181C00217C4B9847031C3B623B6ADAB201
:100710003B1C08331A703B1C083302225A703B6A98
:100720001B0CDAB23B1C0833101C191C734B984786
:10073000FB69002B06D17B69181C01216E4B984781
:10074000031CFB61FB69DAB23B1C08331A703B1CCB
:10075000083302225A70FB691B0CDAB23B1C0833C7
:10076000101C191C654B98473B689A8A7B68DA8095
:100770003B68DA8A7B681A813B681B7E002B04D1B8
:100780005F4B9847031C002B02D08023FB6201E0E3
:100790000023FB623B681B69002B04D03B681B698C
:1007A000FA6A1343FB623B689B68FA6A1343FB6275
:1007B0003A682423D35C002B04D0FB6A8022D20544
:1007C0001343FB623B689B6A002B04D03B689B6A27
:1007D000FA6A1343FB623A682C23D35C002B04D0E3
:1007E000FB6A802212051343FB623A682D23D35C17
:1007F000002B04D0FB6A802212041343FB623A6888
:100800002E23D35C002B04D0FB6A8022D203134337
:10081000FB62BB691A68FB6A1A43BB691A60BB6951
:10082000802252005A603B1C13331B781433DBB216
:10083000181C344B9847021C3B681B68FA21C900FE
:100840004B43D318591E3B681B68FA22D2005A4307
:100850002D4B081C111C9847031C053BFB60FB68D3
:10086000FF2B02DCFB68002B04DA3B1C2733402201
:100870001A7025E03B1C13331B781433DBB2181CB1
:10088000204B9847021C3B685B68FA21C9004B4328
:10089000D318591E3B685B68FA22D2005A431A4BA0
:1008A000081C111C9847031C013BBB62BB6AFF2B51
:1008B00002DCBB6A002B03DA3B1C273340221A7090
:1008C0003B1C27331B78402B0BD0FA68FF231A40C0
:1008D000BB6A1B04191CFF231B040B401A43BB6992
:1008E000DA603B1C27331B78181CBD460DB090BD49
:1008F000D56700002106000005660000A97E000003
:1009000049060000ED7C00008D8C000090B58BB096
:1009100000AFF860B9607A60FB68BA681A60FB687B
:100920001B687B62FB681B68181C3B4B9847031CC9
:100930003B623B6A0233FB613B6A1433BB61FB6978
:100940000122111C99400B1C0220191C334B9847A3
:100950003B1C1433181C324B98477B681A7B3B1C9A
:1009600014331A70BB69DAB23B1C1433101C191C07
:100970002C4B9847BB69DBB2181C2B4B98477B6804
:100980001B7B181C0021294B98477B6A1A6802239D
:10099000134001D01C233BE07B6A1A6801231340FB
:1009A00001D0052334E0FB681B683C1C1734181C7D
:1009B000194B9847031C23703B1C17331A781C4BA8
:1009C000101C191C1B4B98473B1C17331A781A4BE9
:1009D0009200F968D150FB6800221A76FB68002269
:1009E0005A76FB6800225A83FB6800229A83FA68D1
:1009F00025230021D154FB6800221A627B6A14224D
:100A00001A60FA687B68101C191C0C4B9847031C71
:100A1000181CBD460BB090BDD5670000C505000091
:100A2000B1050000D17B0000117C00007965000059
:100A3000E91100002168000080100020B5060000C8
:100A400080B584B000AF78607B681B68FB60FB6892
:100A50009B69DBB21A1C022313400CD0FB680222F4
:100A60001A76FB689B691B0C9BB21A1C022313406D
:100A700012D0412311E0FB689B691B0C9BB21A1C2E
:100A80000423134008D0FB685B68C02292021A431B
:100A9000FB685A60182300E00023181CBD4604B010
:100AA00080BDC04680B584B000AF78607B681B68AD
:100AB000BB603B1C0E3300221A800FE03B1C0E3340
:100AC0003A1C0E32128801321A807B681B893A1C4C
:100AD0000E3212889A4201D312230EE0BB689B6942
:100AE000DBB21A1C0123134006D1BB689B69DBB241
:100AF0001A1C02231340E1D00023181CBD4604B089
:100B000080BDC04690B585B000AF78600A1CFB1C64
:100B10001A707B681B68FB60FB685B688022D202EE
:100B20001A43FB685A60FB1C1A78FB685A623C1C2B
:100B30000B347B68181C074B9847031C2370FB6819
:100B400001221A763B1C0B331B78181CBD4605B0DE
:100B500090BDC046A50A000090B587B000AF786090
:100B600039607B681B68FB603B1C14333A68528811
:100B70001A803B1C123300221A80FB681B681B0181
:100B8000DB0FDBB21A1C3B1C0B33511E8A411A705F
:100B90003B685B7A002B06D03B689B7A7A68101C16
:100BA000191C794B9847FB685A68784B1A40FB68C8
:100BB0005A603B681B7A002B41D03B681B885A0067
:100BC0003B685B7A9B031343802212021A43FB6843
:100BD0005A623C1C17347B68181C6D4B9847031CE9
:100BE0002370FB685A68694B1A40FB685A603B1CCB
:100BF00017331B78002B07D13C1C17347B68181C5B
:100C0000644B9847031C23703B1C17331B78002B45
:100C100011D13B681B881B0A9BB2782213439BB2FD
:100C20005A003B685B7A9B031343012213431A1C4F
:100C3000FB685A620FE03B1C17331B789FE03B6850
:100C40001B885B0001221A433B685B7A9B031343BA
:100C50001A1CFB685A623C1C17347B68181C4C4BEE
:100C60009847031C2370FB685A68484B1A40FB687E
:100C70005A603B1C17331B78002B07D13C1C1734E0
:100C80007B68181C434B9847031C23703B1C17338D
:100C90001B78002B00D06FE048E0FB689B691B0CC1
:100CA0009BB21A1C2023134001D1412367E03B1C57
:100CB0000B331B7801225340DBB2002B04D03B1CCA
:100CC00014331B88002B09D03B1C0B331B78002BE3
:100CD0000CD03B1C14331B88012B07D1FB685B68CD
:100CE0008022D2021A43FB685A6019E07B68181C04
:100CF000294B98473B685A683B1C12331B88391CA8
:100D00001231581C0880D218FB689B6ADBB2137042
:100D10003C1C17347B68181C1D4B9847031C237020
:100D20003B1C17331B78002B00D008E03B1C14330E
:100D30001B883A1C1432591E1180002BADD17B68E0
:100D40009B7A002B0AD07B68181C134B9847FB68D2
:100D50005B68C02292021A43FB685A607B68181CC9
:100D60000D4B98473B685A683B1C12331B88D218BE
:100D7000FB689B6ADBB213703B1C17331B78181C93
:100D8000BD4607B090BDC046050B0000FFFFFBFF4E
:100D9000A50A0000410A00009106000080B582B05B
:100DA00000AF786039607B68DB699BB2002B01D0B3
:100DB000052309E07B6801229A727A683B68101C5F
:100DC000191C034B9847031C181CBD4602B080BD7C
:100DD000590B000090B587B000AF786039607B6830
:100DE0001B68FB603B1C14333A6852881A807B688E
:100DF000181C514B98473B685B7A002B06D03B6828
:100E00009B7A7A68101C191C4C4B9847FB685A68EF
:100E10004B4B1A40FB685A603B681B7A002B0CD086
:100E20003B681B885A003B685B7A9B031343802214
:100E300012021A43FB685A6209E03B681B885A0099
:100E40003B685B7A9B0313431A1CFB685A623C1C89
:100E500017347B68181C3B4B9847031C23703B1CC2
:100E600017331B78002B07D13C1C17347B68181CE8
:100E7000354B9847031C23703B1C17331B78002B02
:100E800053D13B1C123300221A8036E0FB689B6969
:100E90001B0C9BB21A1C2023134001D1412347E0B5
:100EA0007B68181C244B98473B685A683B1C1233DC
:100EB0001B88391C1231581C0880D3181978FA681D
:100EC0002823D1543C1C17347B68181C1D4B9847B1
:100ED000031C23703B1C17331B78002B00D015E03C
:100EE000FB689B691B0C9BB21A1C0423134004D0A3
:100EF0003B1C17331E221A7008E03B1C14331B885E
:100F00003A1C1432591E1180002BBFD17B689B7A8A
:100F1000002B0AD07B68181C074B9847FB685B685E
:100F2000C02292021A43FB685A603B1C17331B789D
:100F3000181CBD4607B090BD91060000050B0000CF
:100F4000FFFFFBFFA50A0000410A000080B582B048
:100F500000AF786039607B68DB699BB2002B01D001
:100F6000052309E07B6800229A727A683B68101CAE
:100F7000191C034B9847031C181CBD4602B080BDCA
:100F8000D50D000080B584B000AF78607B681B6829
:100F9000FB60FB68DA69072313405A1E9341DBB2FA
:100FA000181CBD4604B080BD80B582B000AF78602B
:100FB000C0467B68181C044B9847031C002BF8D1D3
:100FC000BD4602B080BDC046850F000080B584B02C
:100FD00000AF78607B681B68FB60FB681B681B01C7
:100FE000DB0FDBB21A1C3B1C0B33511E8A411A70FB
:100FF0003A1C08327B689B691B0C13807B68DB6999
:101000009AB23B1C0833391C083109888A1A1A80A5
:101010007B68DB699BB2013B9AB27B689A833B1C7D
:101020000B331B78002B0CD07B68DB699BB2012B48
:1010300013D1FB685B688022D2021A43FB685A60B6
:101040000BE07B68DB699BB2002B06D1FB685B6819
:101050008022D2021A43FB685A607B68181C114B2D
:1010600098477B681A6A3B1C08331B88D218FB68B8
:101070009B6ADBB213707B68DB699BB2002B0ED1DD
:101080007B689B7A002B0AD07B68181C054B98471D
:10109000FB685B68C02292021A43FB685A60BD4637
:1010A00004B080BDA90F000080B584B000AF7860A7
:1010B0007B681B68FB60FB689B691B0C9BB21A1C5E
:1010C0000423134004D07A6825231E21D15425E03F
:1010D0003A1C0A327B689B691B0C13807B68DB69B6
:1010E0009AB23B1C0A33391C0A3109888A1A1A80C1
:1010F0007B68DB699BB2013B9AB27B689A837B6811
:10110000181C084B98477B681A6A3B1C0A331B88DB
:10111000D3181B78D9B2FA682823D154BD4604B03D
:1011200080BDC046A90F000080B584B000AF7860D4
:101130007B681B68FB60FB689B69DBB21A1C0123A0
:1011400013400FD0FB6801221A76FB689B691B0CC9
:101150009BB21A1C0223134022D07A682523412116
:10116000D1541DE0FB689B691B0C9BB21A1C042325
:10117000134015D07A6825231821D1547B680022AA
:101180009A837B689B7A002B0AD07B68181C134BD0
:101190009847FB685B68C02292021A43FB685A605A
:1011A0007B68DB699AB27B685A837B685B6A1B0445
:1011B0001B0EDBB2052B0DD17B685B6ADBB2002B0B
:1011C00004D17B68181C064B984703E07B68181C09
:1011D000044B9847BD4604B080BDC046A90F00002F
:1011E000A9100000CD0F000080B586B000AF021C32
:1011F000FB1D1A70FB1D1A788F4B9200D3587B6130
:101200007B691B683B613B691B681B01DB0FDBB221
:101210001A1C3B1C0F33511E8A411A703A1C0E32A5
:101220007B699B691B041B0E13707B699B69DAB297
:101230003B1C0E33391C0E3109780A401A707B6949
:101240009B691B0C9BB2002B09D17B69DB699BB2AC
:10125000002B04D07B69181C784B98476FE07B69A2
:101260009B691B0C9BB2002B36D07B69DB699BB260
:10127000002B31D17B695B6A1B041B0EDBB2052B93
:101280002AD17B695B6ADBB2002B25D13B69032243
:101290001A757B6900225A837A6925230021D1546B
:1012A0007B699B7A002B0AD07B69181C644B98479A
:1012B0003B695B68C02292021A433B695A603B1C3F
:1012C0000E331A780123134005D07B69DB687A69F5
:1012D000101C984733E032E07B699B691B0C9BB282
:1012E000002B2CD07B69DB699BB2002B27D03B699C
:1012F0009B691B0C9BB21A1C2023134011D13B1C71
:101300000F331B7801225340DBB2002B04D17B69E1
:10131000DB699BB2012B04D07A6925234121D1548A
:101320000DE07B695B6ADBB2002B04D17B69181C82
:10133000444B984703E07B69181C434B98477B69F3
:101340009B691B0C9BB2002B3BD07B69DB699BB27A
:10135000002B36D17B695B6A1B041B0EDBB2052BAD
:101360002FD17B695B6ADBB2012B2AD13B69032257
:101370001A757B6900225A837A6925230021D1548A
:101380003B1C0E331A78022313400AD07B695B6A38
:10139000DBB2012B05D17B691B697A69101C984768
:1013A0000FE03B1C0E331A780123134009D07B69F0
:1013B0005B6ADBB2002B04D17B69DB687A69101CA5
:1013C00098477B695B6A1B041B0EDBB2052B30D090
:1013D0007B695B6A1B041B0EDBB2002B29D03B69C7
:1013E00003221A757B6900225A837B6900229A8343
:1013F0007B695B6A1B041B0EDBB2412B0ED07B6941
:101400009B7A002B0AD07B69181C0D4B98473B69CF
:101410005B68E022D2021A433B695A603B1C0E33E0
:101420001A780423134004D07B695B697A69101C25
:101430009847BD4606B080BD8010002029110000ED
:10144000A90F0000A9100000CD0F000080B582B0E8
:1014500000AF78607B6880221A707B6800225A7027
:101460007B6801229A707B680022DA70BD4602B068
:1014700080BDC04680B584B000AF021CFB1D1A7051
:101480003B1C0F33FA1D1278D2091A703B1C0E3325
:10149000FA1D127852091A700D4BBB603B1C0F33BA
:1014A0001B78002B0ED13B1C0F331B789B001022A6
:1014B000D219D318083B1A683B1C0E331B78DB018A
:1014C000D31800E00023181CBD4604B080BDC04600
:1014D0000044004180B586B000AF021CFB1D1A70AD
:1014E000FB1D1B78181C194B9847031C7B61FB1DC7
:1014F0001A781F2313403B61796940233A698A189F
:10150000D3181B78DBB21A1C0123134001D18023AE
:1015100017E03B695A08796930238A18D3181B7879
:10152000DBB2FB603A690123134005D0FA68F0236F
:1015300013401B09DBB204E0FB68DAB20F2313404F
:10154000DBB2181CBD4606B080BDC0467514000055
:1015500080B582B000AF021CFB1D1A70FB1D1B780A
:10156000181C034B9847031C181CBD4602B080BDD5
:101570007514000080B584B000AF0A1CFB1D011C6F
:101580001970BB1D1A70FB1D1B78181C0D4B98475A
:10159000031CFB60FB1D1A781F2313400122111C42
:1015A00099400B1CBB60BB1D1B78002B03D0FB6854
:1015B000BA689A6102E0FB68BA685A61BD4604B035
:1015C00080BDC0465115000080B582B000AF786084
:1015D0007B6800221A70BD4602B080BD80B582B023
:1015E00000AF021C3960FB1D1A70FB1D1B78012B1C
:1015F0000AD0022B0FD0002B14D10E4B0D4A91694B
:101600003A680A439A610FE00A4B0A4AD1693A687C
:101610000A43DA6108E0074B064A116A3A680A434E
:101620001A6201E0172300E00023181CBD4602B037
:1016300080BDC0460004004080B500AF064B1B686B
:101640001B021B0EDBB21A1C022313405A1E9341CD
:10165000DBB2181CBD4680BD0020004180B584B0BF
:1016600000AF78607B681B68FB60FB689B69DBB23E
:101670001A1C012313405A1E9341DBB2181CBD46AD
:1016800004B080BD80B584B000AF78607B681B6813
:10169000FB60FB689B69DBB21A1C042313405A1ED3
:1016A0009341DBB2181CBD4604B080BD80B584B048
:1016B00000AF78600A1CBB1C1A807B681B68FB604B
:1016C0007B68181C0A4B9847031C01225340DBB26D
:1016D000002B01D0052306E0BB1C1B88DB05DA0DBF
:1016E000FB689A620023181CBD4604B080BDC0464A
:1016F0005D16000080B584B000AF786039607B680B
:101700001B68BB607B68181C1E4B9847031C01229A
:101710005340DBB2002B01D010232EE03B1C0F33D3
:1017200000221A70BB689B691B0C9BB21A1C042315
:1017300013400CD03B1C0F331E221A70BB689B69F0
:101740001B0C9BB2042213439AB2BB685A837B687A
:101750009B79012B08D1BB689B6A9BB2DB05DB0D33
:101760009AB23B681A8005E0BB689B6ADBB21A1C20
:101770003B681A803B1C0F331B78181CBD4604B015
:1017800080BDC0468516000090B593B000AF78606C
:1017900039607B681B687B637B681B683B633B1C11
:1017A0001C33181C824B98473B1C1C3300225A7078
:1017B0003B689A6A3B1C0C331A603B68DA6A3B1C34
:1017C0000C335A603B681A6B3B1C0C339A603B68C5
:1017D0005A6B3B1C0C33DA603B1C473300221A70F7
:1017E0002CE03B1C47331A783B1C0C339200D35837
:1017F0003B643B6C002B09D13A6B3B1C47331B7895
:10180000101C191C6B4B9847031C3B643B6C013349
:101810000DD03B6CDAB23B1C1C331A703B6C1B0CBA
:10182000DAB23B1C1C33101C191C634B98473B1C41
:1018300047331A783B1C473301321A703B1C47333D
:101840001B78032BCDD93B681A787B685A713B68AB
:101850001A7C7B689A713B689A7C7B68DA713B687A
:101860001A7D7B681A723B1C0A3300221A800023FF
:10187000FB630023BB633B681B78012B2BD17B6888
:101880001B68181C4D4B9847031CFB62FB6A143302
:10189000BB62BB6ADBB2181C494B9847031C7B62D6
:1018A0003B6899693C1C23347A6A3B1C0A33081C48
:1018B000111C1A1C434B9847031C23703B1C2333F9
:1018C0001B78002B01D017236DE03B1C0A331B88CB
:1018D000DAB27B6B1A733B681B78002B1AD13B681A
:1018E0009B69FB633B689B8BBB637B6B5A6A3B6862
:1018F0009B7F191C3B68DB7F1B040B431A437B6BEC
:101900005A623A682023D35C002B03D0BB6B402281
:101910001343BB633B685B68FA6B1343FB633B6831
:101920009B68FA6B1343FB633B68DB68FA6B1343FA
:10193000FB633B681B7CBA6B1343BB633B685B7CFC
:10194000002B04D1204B9847031C002B03D0FB6BCA
:1019500080221343FB633B689B7C002B04D0BB6B52
:10196000802292021343BB633B68DB7C002B04D0D4
:10197000BB6B802292001343BB633B681B7D002B33
:1019800004D0BB6B802292011343BB637B6B1A684C
:10199000FB6B1A437B6B1A607B6B5A68BB6B1A43F9
:1019A0007B6B5A600023181CBD4613B090BDC04627
:1019B0004D14000005660000A97E0000D5670000F8
:1019C000ED7C0000656300003916000090B591B011
:1019D00000AF786039607B681B68FB627B681B68BE
:1019E000BB623B689A6A3B1C0C331A603B68DA6A3C
:1019F0003B1C0C335A603B681A6B3B1C0C339A60DF
:101A00003B685A6B3B1C0C33DA603B1C3F330022B3
:101A10001A7030E03B1C3F331A783B1C0C339200A9
:101A2000D358BB63BB6B002B09D1BA6A3B1C3F3355
:101A30001B78101C191C6D4B9847031CBB63BB6BB8
:101A4000013300D110E0BB6B1B041C0CBB6B1B0CE7
:101A5000DBB2181C664B9847031C9C4204D07B6881
:101A600000221A601C23BDE03B1C3F331A783B1C4C
:101A70003F3301321A703B1C3F331B78032BC9D90B
:101A800013205C4B9847031C7B6200237B6300237D
:101A90003B6300233B623B681B78012B23D13B68EF
:101AA00099693C1C1F347A6A3B1C0A33081C111CC0
:101AB0001A1C514B9847031C23703B1C1F331B7887
:101AC000002B01D017238DE0FB6ADB68DAB23B1CE8
:101AD0000A331B88DBB29A4201D01C2382E07B6B65
:101AE0000C2213437B633B681B78002B27D13B6898
:101AF0009B697A6B13437B633B689B8B3A6B134305
:101B00003B633B689B7F1A1C3B68DB7F1B041343D2
:101B10003A6A13433B62FB6A1A683B6A9A4201D0F5
:101B20001C235FE03A682023D35C002B03D03B6B7F
:101B3000402213433B637B6B082213437B633B6868
:101B40005B687A6B13437B633B689B687A6B1343D8
:101B50007B633B68DB687A6B13437B633B681B7C6E
:101B60003A6B13433B633B685B7C002B03D07B6B7E
:101B7000802213437B633B689B7C002B04D03B6B30
:101B80008022920213433B633B68DB7C002B04D032
:101B90003B6B8022920013433B633B681B7D002B11
:101BA00004D03B6B8022920113433B637B6B022288
:101BB00013437B63FB6A1A687B6B9A420ED1FB6A04
:101BC0005A683B6B9A4209D13B681A787B685A7114
:101BD0003B681A7C7B689A71002303E07B680022D3
:101BE0001A601C23181CBD4611B090BD056600008C
:101BF000D5140000ED7C00006563000080B58AB05C
:101C000000AFF860B9607A60FB68BA681A60FB6878
:101C10001B687B627B6A1A680223134007D0FA684C
:101C20007B68101C191C2F4B9847031C56E07B6ADD
:101C30001A680123134001D005234FE0FB681B689D
:101C4000181C294B9847031C3B623B6A0233FB611B
:101C50003B6A1433BB61FB690122111C99400B1CC8
:101C60000220191C214B98473B1C1433181C204B95
:101C700098477A682423D25C3B1C14331A70BB69E2
:101C8000DAB23B1C1433101C191C1A4B9847BB6961
:101C9000DBB2181C184B98477A682423D35C181CB5
:101CA0000021164B98477B681B78012B05D17B6A76
:101CB0001B680C221A437B6A1A607B681B78002B16
:101CC00005D17B6A1B6808221A437B6A1A60FA688E
:101CD0007B68101C191C0A4B9847031C181CBD4636
:101CE0000AB080BDCD190000D5670000DD150000E9
:101CF000C9150000D17B0000117C0000796500004F
:101D00008917000080B586B000AFF860B960FB1D90
:101D10001A70FB685B79012B01D0152359E0FB6831
:101D20001B7A01225340DBB2002B51D0FB1D1B78E4
:101D3000002B47D0BB685B78002B3CD0FB68181C9D
:101D4000264B9847031C01225340DBB2002B07D0DF
:101D5000BB681B78181C0121214B9847052338E0EC
:101D6000BB681B78181C00211D4B9847BB689B78EB
:101D7000FA68101C191C1B4B9847FB68DB79012281
:101D80005340DBB2002B23D0C046FB68181C164B17
:101D90009847031C01225340DBB2002BF5D13B1CBA
:101DA000163300221A80FA683B1C1633101C191CCB
:101DB0000E4B98470CE0BB681B78181C0021084BA1
:101DC000984705E0BB681B78181C0121044B984715
:101DD0000023181CBD4606B080BDC0465D1600003D
:101DE00075150000AD16000085160000F516000000
:101DF00080B584B000AF021CFB1D1A703B1C0F3372
:101E0000FA1D1278D2091A703B1C0E33FA1D127893
:101E100052091A700D4BBB603B1C0F331B78002B13
:101E20000ED13B1C0F331B789B001022D219D31804
:101E3000083B1A683B1C0E331B78DB01D31800E00B
:101E40000023181CBD4604B080BDC04600440041BC
:101E500080B500AF034B01221A70BFF35F8F62B6EB
:101E6000BD4680BD1000002080B582B000AF786014
:101E70007B6800221A607B6800225A607B6801221E
:101E80001A727B6801225A727B6800229A727B6800
:101E90000222DA72BD4602B080BDC04680B582B073
:101EA00000AF021CFB1D1A70FB1D1B78181C034B96
:101EB0009847031C181CBD4602B080BDF11D0000F0
:101EC00080B582B000AF78607B6800221A707B68B2
:101ED00001225A707B6800229A70BD4602B080BD14
:101EE00080B584B000AF0A1CFB1D011C1970BB1D1E
:101EF0001A70FB1D1B78181C0D4B9847031CFB60C8
:101F0000FB1D1A781F2313400122111C99400B1C42
:101F1000BB60BB1D1B78002B03D0FB68BA689A61BD
:101F200002E0FB68BA685A61BD4604B080BDC04695
:101F30009D1E000080B500AF044B1B68002B02D033
:101F4000024B1B689847BD4680BDC046180900205B
:101F500080B582B000AF3B1D181C0B4B98473B1D52
:101F600001221A703B1D2620191C084B98473B1D67
:101F70002520191C054B98473B1D2720191C034B96
:101F80009847BD4602B080BDC11E0000F56200004A
:101F900080B500AF064B00221A60064B9847064BEF
:101FA0009847064B984700235BB2181CBD4680BD7E
:101FB00018090020511F0000C11F0000511E000021
:101FC00080B500AF252000210A4B9847262000212C
:101FD000084B984725200121064B98470120064BC6
:101FE000984726200121034B984700235BB2181C19
:101FF000BD4680BDE11E0000FD1F000080B582B01F
:1020000000AF786002E00120044B98477B685A1EBD
:102010007A60002BF7D1BD4602B080BD155B000091
:1020200080B586B000AF7860154B7A681A603B1CAB
:102030000C33181C134B98473B1C0C3324221A609A
:102040003B1C0C3300225A603B1C0C3301221A72D9
:102050003B1C0C330222DA723B1C0C330420191C8B
:10206000094B9847094B181C04210022084B98473C
:1020700004200021074B9847BD4606B080BDC046EE
:1020800018090020691E0000A95F0000351F00002C
:1020900075610000D161000080B582B000AF021C04
:1020A000FB1D1A70FB1D1B78002B04D0042000219F
:1020B000044B984703E004200021034B9847BD469A
:1020C00002B080BDD16100001962000080B584B00B
:1020D00000AF021CFB1D1A703B1C0F33FA1D127857
:1020E000D2091A703B1C0E33FA1D127852091A706D
:1020F0000D4BBB603B1C0F331B78002B0ED13B1CE0
:102100000F331B789B001022D219D318083B1A6892
:102110003B1C0E331B78DB01D31800E00023181C96
:10212000BD4604B080BDC0460044004180B582B0C9
:1021300000AF021CFB1D1A70FB1D1B78181C034B03
:102140009847031C181CBD4602B080BDCD2000007E
:1021500080B582B000AF78607B6800221A707B681F
:1021600001225A707B6800229A70BD4602B080BD81
:1021700080B584B000AF0A1CFB1D011C1970BB1D8B
:102180001A70FB1D1B78181C0D4B9847031CFB6035
:10219000FB1D1A781F2313400122111C99400B1CB0
:1021A000BB60BB1D1B78002B03D0FB68BA689A612B
:1021B00002E0FB68BA685A61BD4604B080BDC04603
:1021C0002D21000080B584B000AF78607B681B686B
:1021D000FB60FB68DB695A1E9341DBB2181CBD46ED
:1021E00004B080BD80B582B000AF78607B6801220A
:1021F0001A707B6800225A607B6800229A607B68B4
:10220000C0229203DA607B6800221A747B68002285
:102210005A747B6801229A747B680122DA747B68A5
:1022200000221A757A6824230021D1547B68183360
:10223000181C00210C220A4B98477B68094A9A61B6
:102240007B6800229A627B680022DA627B68002247
:102250001A637B6800225A63BD4602B080BDC04647
:10226000A7A50000A086010080B582B000AF78600D
:102270007B680A221A707B6800225A707B680022F1
:102280009A70BD4602B080BD80B584B000AF786062
:1022900039603B681A787B681A703B685A787B68AB
:1022A0005A703B689A787B689A703B1C0C33181CF8
:1022B0000B4B98473B1C0C3301221A707B681A7831
:1022C0003B1C0C33101C191C064B98477B681B7871
:1022D000181C0121044B9847BD4604B080BDC04680
:1022E00051210000F56200007121000080B584B02A
:1022F00000AF78607B681B68FB60C0467B68181C79
:10230000064B9847031C002BF8D1FB681B68022280
:102310001A43FB681A60BD4604B080BDC5210000A9
:1023200080B584B000AF78607B681B68FB60FB6899
:102330009B69DBB21A1C022313405A1E9341DBB285
:10234000181CBD4604B080BD80B584B000AF786075
:102350007B681B68FB60FB689B69DBB21A1C01236E
:1023600013405A1E9341DBB2181CBD4604B080BD19
:1023700080B584B000AF78607B681B68FB60FB6849
:102380009B69DBB21A1C042313405A1E9341DBB233
:10239000181CBD4604B080BD80B584B000AF786025
:1023A0000A1CBB1C1A807B681B68FB607B68181CBE
:1023B0000A4B9847031C01225340DBB2002B01D08B
:1023C000052306E0BB1C1B88DB05DA0DFB689A625F
:1023D0000023181CBD4604B080BDC0464923000040
:1023E00080B584B000AF786039607B681B68BB60E3
:1023F0007B68181C1E4B9847031C01225340DBB21C
:10240000002B01D010232EE03B1C0F3300221A704A
:10241000BB689B691B0C9BB21A1C042313400CD095
:102420003B1C0F331E221A70BB689B691B0C9BB2AE
:10243000042213439AB2BB685A837B689B79012BB1
:1024400008D1BB689B6A9BB2DB05DB0D9AB23B6887
:102450001A8005E0BB689B6ADBB21A1C3B681A80D5
:102460003B1C0F331B78181CBD4604B080BDC04612
:102470007123000080B586B000AFF860B960BB1D65
:102480001A803B1C133300221A703B1C17330022A6
:102490001A703B1C163300221A703B1C14330022A6
:1024A0001A803B1C103300221A80FB68002B07D1D6
:1024B0003B1C1333FB603B1C173301221A700CE0EA
:1024C000BB68002B07D13B1C1333BB603B1C16338E
:1024D00001221A7001E0FA236BE0384A384B101CD5
:1024E000191C0122374B98474CE0FB681A783B1CBB
:1024F00014331A80C046314B181C334B9847031CC9
:1025000001225340DBB2002BF5D1C0462B4A3B1CC5
:1025100014331B88101C191C2C4B9847031C002BD0
:10252000F4D1C046254B181C294B9847031C0122A7
:102530005340DBB2002BF5D1C046204A3B1C103380
:10254000101C191C234B9847031C002BF5D13B1C76
:1025500010331B88DAB2BB681A70BB1D1A88BB1D0A
:10256000013A1A803B1C16331B78002B02D1BB6842
:102570000133BB603B1C17331B78002B02D1FB6877
:102580000133FB60BB1D1B88002BAED1C0460B4B3B
:10259000181C114B9847031C01225340DBB2002B3F
:1025A000F5D1064A064B101C191C0022054B984712
:1025B00000235BB2181CBD4606B080BDCC0F0020C6
:1025C000C80F0020051D00004923000099230000CA
:1025D00071230000E12300002123000080B590B0AA
:1025E00000AF3B1C3F3300221A703B1C181C1F4BD2
:1025F00098473B1C05221A701D4A3B1C101C191CD5
:102600001C4B98473B1D181C1B4B98473B1D8022B9
:102610005202DA603B1D194A9A623B1D0122524266
:10262000DA623B1D164A1A633B1D164A5A633B1D6C
:1026300000221A753B1D144A9A611449144A3B1D25
:10264000081C111C1A1C134B9847031C002B01D0AB
:10265000FA2306E00D4B181C0F4B98473B1C3F33E9
:102660001B785BB2181CBD4610B080BD692200000B
:10267000C80F002089220000E521000003000400AB
:10268000030006000300070000093D00CC0F0020F6
:1026900000080042FD1B0000ED22000090B585B04F
:1026A00000AF021C3960FB1D1A703B1C0F33002267
:1026B0001A70FB1D1B78032B11D13B68BB60BB68F4
:1026C0001968BB685A68BB681B893C1C0F34081C1E
:1026D000111C1A1C084B9847031C237004E03B1C78
:1026E0000F33FF221A70C0463B1C0F331B785BB2BE
:1026F000181CBD4605B090BD7524000080B500AF24
:10270000BD4680BD80B584B000AFF860B9607A6026
:102710007B68002B00D10FE0BB681A78FB681A7049
:10272000FB680133FB60BB680133BB607B68013B26
:102730007B607B68002BEFD1BD4604B080BDC046F6
:1027400080B584B000AFF8607A603B1C0B330A1C84
:102750001A707B68002B00D10DE0FB683A1C0B322D
:1027600012781A70FB680133FB607B68013B7B6069
:102770007B68002BF1D1BD4604B080BD80B584B02C
:1027800000AF78603B1C0E3300221A8009E03B1C2E
:102790000E331A883B1C0E3301321A807B680133DA
:1027A0007B607B681B78002BF1D13B1C0E331B88B0
:1027B000181CBD4604B080BD80B500AF044B1B782B
:1027C000DBB20133DAB2024B1A70BD4680BDC0469F
:1027D0001F09002080B500AF054B1B78DBB2042B2E
:1027E00001D0034B1B78034B01221A70BD4680BDFC
:1027F0001C0900201D09002080B582B000AF021C1A
:10280000FB1D1A70034BFA1D12781A70BD4602B0F8
:1028100080BDC0461C09002080B500AF034B1B786B
:10282000034B00221A70BD4680BDC0461C09002023
:102830001D09002080B582B000AF01200C4B9847E5
:102840000C4B181C0C4B9847031C7B607B680122C7
:1028500093437B607B68022213437B60054A7B685D
:10286000101C191C054B9847BD4602B080BDC046E0
:102870009920000070100000113C0000553C000041
:1028800080B582B000AF78600C4B00221A600C4B10
:1028900000221A600B4B01221A700B4B00221A7097
:1028A0000A4B00221A700A4B181C0A4B9847002347
:1028B0005BB2181CBD4602B080BDC0462009002096
:1028C000240900201D0900201C0900201F090020E8
:1028D000B92700002120000080B582B000AF7860E9
:1028E000034B984700235BB2181CBD4602B080BD65
:1028F000D527000080B58AB000AF3A601A1CFB1DD6
:102900001870BB1D19703B1D1A803B1C2733FF221A
:102910001A70BB1D1A787F231340DAB23B1C1833A0
:102920005A703B1C1833FA1D12781A703B1C18336E
:1029300004225A803B6B002B10D03B1C18335A8862
:10294000391C38313B1C343309881B88CB189BB2A7
:10295000D3189AB23B1C18335A8009E03B1C183339
:102960005A883B1D1B88D3189AB23B1C18335A80D7
:102970007B4B98473B1C243300221A80794B181C50
:102980000121794B98473B1C233300221A703B1CD2
:1029900018335B881A1C032313400BD03B1C1833DD
:1029A0005B88DAB203231340DAB23B1C23330421E1
:1029B0008A1A1A7000237B61FB1D1A787B69134306
:1029C0007B61BB1D1B781A027B6913437B613B1C37
:1029D00018335B881A047B6913437B617B69634A04
:1029E000101C191C604B984700237B617B690222F5
:1029F00013437B617B695E4A101C191C5A4B984734
:102A000000233B6100205B4B98473B1C2433002292
:102A10001A801BE0564B181C574B9847031C7B61D0
:102A20007A69022313400AD1544B181C524B984721
:102A3000031C3B613B1C273300221A700CE03B1C3B
:102A400024331A883B1C243301321A803B1C243364
:102A50001A884B4B9A42DDD90120464B98473B6977
:102A6000002B69D03B69FB613B1C18335A883B1C27
:102A700018335A80FA693B1C1833101C191C0422A5
:102A8000404B9847FB690433FB613B68002B0DD03A
:102A9000F9693A683B1D1B88081C111C1A1C394B2C
:102AA00098473B1D1B88FA69D318FB613B6B002BD1
:102AB00018D03B1C38331A883B1D1B88D31AFA697F
:102AC000D318FB61F9693A6B3B1C34331B88081C33
:102AD000111C1A1C2B4B98473B1C34331B88FA697A
:102AE000D318FB613B1C23331B78002B12D03B1CFB
:102AF0000C33181C00210422234B98473B1C233322
:102B00001B789BB2F9693A1C0C32081C111C1A1C68
:102B10001C4B98473B699B007B617B6902221343F6
:102B20007B617B69194A101C191C0F4B98473B1C91
:102B3000273300221A7003E03B1C2733FD221A7052
:102B4000134B1B78DBB2032B01D1124B98473B1C74
:102B500027331B785BB2181CBD460AB080BDC04647
:102B6000D527000014001500553C00008C10000013
:102B70007810000099200000113C000000041500AE
:102B8000E7030000BD3D0000412700006C1000007D
:102B90001C0900201928000090B585B000AF3B1C2F
:102BA0000F3300221A7080235B01181C694B984771
:102BB000031C1B0B1A0380235B039A4200D0C1E065
:102BC0003C1C0F34644A3B1C0833101C191C634B1B
:102BD0009847031C23703B1C0F331B785BB2002B00
:102BE00000D0AFE0BA680123134000D1AAE0002072
:102BF0005B4B98473C1C0F34574A3B1C0833101C56
:102C0000191C564B9847031C23703B1C0F331B7831
:102C10005BB2002B03D00120514B984792E0514BFF
:102C200000221A70BB689B089AB23B1C0C33120539
:102C3000120D1A803B1C0C331B88002B00D17AE04C
:102C400000233B603C1C0F34474A3B1C101C191CE2
:102C5000424B9847031C23703B1C0F331B785BB21D
:102C6000002B03D001203E4B98476BE03A683C1C98
:102C70000F343B1D101C191C04223C4B9847031CAD
:102C800023703B1D5A883B1D5A803B1C0F331B7819
:102C90005BB2002B03D00120314B984752E03B1D23
:102CA0005B883A1C0C3212889A4210D03B1C0C33C1
:102CB0001A883B1D5B88D31A042B08DD0120284BA2
:102CC00098473B1C0F33FA221A70C0463AE03B1D6E
:102CD0001B78012B11D1264B1B68002B22D0244BD3
:102CE0001C683B1D58783B1D5B88043B99B23B68D0
:102CF0001A1D3B1D1B78A04714E03B1D1B78022BBF
:102D000010D11C4B1B68002B0CD01A4B1C683B1DB0
:102D100058783B1D5B88043B99B23B681A1D3B1DEC
:102D20001B78A0470F4B1B78DBB2002B02D1124B54
:102D3000984707E006E03B1C0F33FA221A700E4B4F
:102D40009847FFE73B1C0F331B785BB2181CBD464E
:102D500005B090BD113C000070100000313C000037
:102D6000992000001E09002084100000A93C0000EA
:102D700020090020240900203528000090B583B0E8
:102D800000AFFB1D00221A7011E0FC1D0E4B98478E
:102D9000031C2370FB1D1B785BB2002B00D00BE0E3
:102DA0000A4B1B78DBB2013BDAB2084B1A70074BB7
:102DB0001B78DBB2002BE8D1FB1D1B785BB2181C23
:102DC000BD4603B090BDC046992B00001F090020EE
:102DD00080B588B000AFF860B960BB1D1A801D4B8C
:102DE000181C1D4B9847031CFB61FA690123134013
:102DF00028D0FB699B089AB23B1C1A331205120DAE
:102E00001A80164B181C144B9847031C7B61F968F9
:102E1000BA68BB1D1B88081C111C1A1C104B984754
:102E20003B1C1A331A887B69D218BB1D1988FB68B2
:102E3000CB18D31A032B07D80A4B01221A700A4B5E
:102E4000984701E0FE2300E000235BB2181CBD465A
:102E500008B080BD70100000113C0000841000001C
:102E6000A93C00001E0900203528000080B582B072
:102E700000AF7860024B7A681A60BD4602B080BD30
:102E80002009002080B582B000AF7860024B7A68DC
:102E90001A60BD4602B080BD2409002080B5A2B0F2
:102EA00000AF3A601A1CFB1D18703B1D1980BB1D3A
:102EB0001A70FB1D1B782A2B17D13A683B1C7C33F8
:102EC000101C191C0422A54B9847031C002B0BD186
:102ED000A34B1B68002B07D0A14B1B683A1C7C320C
:102EE0002A20111C984736E135E1FB1D1B78072B82
:102EF00000D130E1FB1D1B78352B18D13A683B1C03
:102F00008033101C191C0422944B9847031C002B7F
:102F100000D020E1924B1B68002B00D11BE1904BAD
:102F20001B683A1C80323520111C984713E1FB1DA9
:102F30001B78322B1ED13B1C0C33181C0021642241
:102F4000884B98473A683B1C0C33101C191C6422B0
:102F5000824B9847031C002B0BD1814B1B68002B25
:102F600007D07F4B1B683A1C0C323220111C98474B
:102F7000F1E0F0E0FB1D1B78482B1ED13B1C7833A1
:102F8000181C00210422774B98473A683B1C783381
:102F9000101C191C0422714B9847031C002B0BD1E9
:102FA0006F4B1B68002B07D06D4B1B683A1C7832A7
:102FB0004820111C9847CEE0CDE0FB1D1B785C2B10
:102FC0001ED13B1C7433181C00210422654B98470A
:102FD0003A683B1C7433101C191C04225F4B984741
:102FE000031C002B0BD15E4B1B68002B07D05C4BE6
:102FF0001B683A1C74325C20111C9847ABE0AAE0B5
:10300000FB1D1B78372B16D13A683B1C8033101CF4
:10301000191C0422514B9847031C002B00D09AE046
:103020004F4B1B68002B00D195E04D4B1B683720A0
:10303000002198478FE0FB1D1B782F2B1FD14A4B97
:1030400000221A703A683B1C7033101C191C0422B1
:10305000424B9847031C002B10D13B1C70331A784D
:10306000424B1A703E4B1B68002B07D03C4B1B6831
:103070003A1C70322F20111C98476CE06BE0FB1D4E
:103080001B78312B17D13A683B1C0C33101C191CD0
:103090002C22324B9847031C002B0BD1304B1B6862
:1030A000002B07D02E4B1B683A1C0C323120111C10
:1030B000984750E04FE0FB1D1B78042B16D13A686F
:1030C0003B1C8033101C191C0422244B9847031C02
:1030D000002B40D1224B1B68002B3CD0204B1B689F
:1030E0003A1C80320420111C984734E0FB1D1B78E9
:1030F000152B16D13A683B1C8033101C191C042276
:10310000164B9847031C002B25D1154B1B68002B31
:1031100021D0134B1B683A1C80321520111C984794
:1031200019E0FB1D1B782B2B15D13A683B1C803313
:10313000101C191C0422094B9847031C002B0AD1B0
:10314000074B1B68002B06D0054B1B683A1C8032CE
:103150002B20111C9847BD4622B080BDD12D000008
:103160002C090020412700002909002028090020FF
:1031700090B585B000AF78603B1C0F3300221A7009
:103180007B681A68234B1A60234B00221A703C1C80
:103190000F340020214B9847031C23703B1C0F3336
:1031A0001B785BB2002B00D02BE03C1C0F340020BE
:1031B0001B4B9847031C23703B1C0F331B785BB2DF
:1031C000002B00D01AE0174B181C174B98473C1CDB
:1031D0000F3400200121154B9847031C23703B1C22
:1031E0000F331B785BB2002B04D0C0460020104B7D
:1031F000984703E03B1C0F331B7805E000200D4B84
:1032000098473B1C0F331B785BB2181CBD4605B0BA
:1032100090BDC0462C090020290900205D40000017
:10322000812800009D2E00006D2E0000C934000092
:10323000D92800009D41000080B582B000AF7860C1
:10324000034B9847031C181CBD4602B080BDC04606
:103250007D2D0000B0B5A8B004AFF8607B603B1CCA
:103260000B3319703B1C0A331A703B1C8F3300223E
:103270001A703B1C0A331B78012B15D07B68002B7E
:103280000DD07B68181C824B9847031C002B06D07E
:103290007B68181C7E4B9847031C402B04D93B1CB1
:1032A0008F33F4221A70EAE03B1C0B331B78002B9F
:1032B00004D03B1C0B331B78202B04D93B1C8F33D1
:1032C000F4221A70DBE03B1CA0331B880D2B09D9BC
:1032D0003B1CA0331B88FF2B04D03B1C8F33F422F4
:1032E0001A70CCE03B1C0B331B783A1C1432111CB7
:1032F0004631FA68081C111C1A1C664B98473B1C87
:103300000B331A78391C143140238A18D318002241
:103310009A713A1C1432391CA03144230988D152C5
:103320003B1C14338820C01903608821C9190A681E
:10333000391C0A3141230978D1543B1C0A331B78CC
:10334000032B55D17B688422D21913608820C019C1
:1033500003688021C9190B608422D21913681B7875
:10336000013BDAB28020C01903681A708021C919A4
:103370000B681B78032B04D93B1C8F33F4221A7083
:103380007DE08422D21913685B78013BDAB2802099
:10339000C01903685A708021C9190B685B780A2B21
:1033A0000AD08022D21913685B781A2B04D03B1CF8
:1033B0008F33F4221A7062E08020C0190368991CD0
:1033C0008422D21913689A1C8420C01903685B7880
:1033D000081C111C1A1C2F4B98478421C9190B6813
:1033E0005B788020C0190268D31800229A7034E0FC
:1033F0003B1C0A331B78022B16D17B68181C244B0C
:103400009847031CDAB23B1C7F3301321A708822C2
:10341000D21911683B1C7F331B787A68081C111C79
:103420001A1C1C4B984718E03B1C0A331B78042BD2
:1034300009D18823DB191A687B68101C191C3E22ED
:10344000144B984709E03B1C0A331B78012B04D02E
:103450003B1C8F33F4221A7011E03C1C8F343B1C50
:1034600014330022009200220192002202920120D5
:1034700028211A1C6823084DA847031C23703B1CF5
:103480008F331B785BB2181CBD4624B0B0BDC0465C
:103490007D27000005270000F528000090B585B0C5
:1034A00004AF002300930023019300230293022022
:1034B000042100220023034CA047031C181CBD4616
:1034C00001B090BDF5280000B0B588B004AF0A1C6B
:1034D000FB1D011C1970BB1D1A703B1C0F33002211
:1034E0001A70FB1D1B78042B1BD03B1C0833FA1DE4
:1034F00012781A703B1C0833BA1D12785A703C1CA3
:103500000F343B1C0833002200920022019200225B
:10351000029201202C211A1C0423084DA847031CE9
:103520002370FB1D1B78181C054B98473B1C0F3361
:103530001B785BB2181CBD4604B0B0BDF528000076
:10354000F927000080B582B000AF00237B603B1DEF
:103550000120191C084B98477A680223134008D0B1
:103560007B68022293437B607B680120191C034B1C
:103570009847BD4602B080BD313C0000553C00007C
:1035800080B500AF0620DB21104B984707200621AD
:103590000E4B98470A200E4B9847A4235B01181C3A
:1035A00000210A4B98470B4B181C0021074B9847EA
:1035B0000A20074B984706200021044B9847072014
:1035C0000021024B9847BD4680BDC046553C0000D7
:1035D000FD1F00008414000090B583B000AFFC1DF7
:1035E000284A3B1C101C191C274B9847031C2370AE
:1035F000FB1D1B785BB2002B01D0FA233CE03B683B
:103600008022520013433B603B68FC1D1D4A101C86
:10361000191C1E4B9847031C2370FB1D1B785BB2C3
:10362000002B01D0FA2327E0FC1DD0235A013B1CBC
:10363000101C191C144B9847031C2370FB1D1B788E
:103640005BB2002B01D0FA2316E03B6880225202C5
:1036500013433B603B68FC1DD0225201101C191C17
:103660000A4B9847031C2370FB1D1B785BB2002B91
:1036700001D0FA2300E000235BB2181CBD4603B062
:1036800090BDC04608140000313C0000553C0000CD
:1036900090B583B000AF3D4B181C00213C4B9847C0
:1036A0003C4B181C00213A4B98473B4B181C0021FF
:1036B000374B9847FC1D394A3B1C101C191C384BD2
:1036C0009847031C2370FB1D1B785BB2002B02D0B4
:1036D000FB1DFA221A703B68012213433B603B68D2
:1036E000FC1D2E4A101C191C294B9847031C2370E3
:1036F000FC1D2C4B181C0121254B9847031C2370E3
:10370000A0235A013B1C101C191C254B9847031C75
:10371000DAB2FB1D1B78D318DAB2FB1D1A703A68B7
:103720008023DB00134012D03A681F4B13403B60EC
:103730003B68A0225201101C191C154B9847031C12
:10374000DAB2FB1D1B78D318DAB2FB1D1A703B6886
:103750008022D20013433B603B68A0225201101C20
:10376000191C0B4B9847031CDAB2FB1D1B78D318AE
:10377000DAB2FB1D1A7001200C4B9847FB1D1B7819
:103780005BB2181CBD4603B090BDC0460C000C00D7
:10379000553C00008C100000AC070200181100001E
:1037A000313C000014001500FFFBFFFFFD1F00006F
:1037B00080B582B000AF2F4B1B68002B54D1802303
:1037C0005A012C4B101C191C2B4B9847031C002B27
:1037D00004D0284B00221A60002347E0274A3B1CF4
:1037E000101C191C244B9847031C002B04D0214BA0
:1037F00000221A60002339E01E4B1A68204B9A42BF
:1038000006D13B68012B15D01A4B1E4A1A6011E0F5
:10381000184B1A681C4B9A420CD13B68032B09D0F9
:103820003B68042B03D1134B184A1A6002E0114B7A
:10383000174A1A600F4B1B68002B15D0154B984781
:10384000031C7B607A68144B9A420DD1094B1A68AD
:10385000124B1A40074B1A60064B1B68A022D2027B
:103860001A43044B1A60FFE7024B1B68181CBD4645
:1038700002B080BD30090020313C0000F41300008C
:10388000A0021000A1021000B0021000B10210004E
:10389000B202100069500000EF301200FFFFF0FF8D
:1038A00080B500AF074B9847031C1B051A0D064B4C
:1038B0009A4205D9054A064B101C191C054B98471E
:1038C000BD4680BDB1370000AF020000481E0000B9
:1038D000CE6984B7553C000080B582B000AF0E4B76
:1038E000181C0E4B9847031C7B607B680122934396
:1038F0007B60094A7B68101C191C094B98477B6840
:10390000012213437B60044A7B68101C191C044B82
:103910009847BD4602B080BD28140000113C00004D
:10392000553C000080B582B000AF0A4B181C0A4B12
:103930009847031C7B607B68042213437B60054A25
:103940007B68101C191C054B9847054B9847BD46D2
:1039500002B080BD1C140000113C0000553C00006A
:10396000D938000080B582B000AFFB1D00221A706C
:103970000D4B9847A0235B01181C00210B4B984767
:10398000031CDAB2FB1D1B78D318DAB2FB1D1A70C8
:103990003220074B9847074B9847FB1D1B785BB2BB
:1039A000181CBD4602B080BD25390000553C000002
:1039B000FD1F0000A138000080B584B000AF3B1CA3
:1039C0000F3300221A700023BB6000237B600023AA
:1039D000BB60234B181C234B9847031CBB60BB6880
:1039E000002B0EDAC046204B181C1E4B9847031CB8
:1039F000BB60BA6801231340BB60BB68002B21D1B8
:103A000003E00120194B9847E3E70023BB6015E072
:103A10000120164B9847164B181C124B9847031C55
:103A2000BB607B6801337B607A68FA239B009A4213
:103A300004D93B1C0F33FB221A7009E0BA680D4B06
:103A40009A42E5D10A4A0C4B101C191C0B4B9847A3
:103A50003B1C0F331B785BB2181CBD4604B080BD05
:103A600014100000113C0000BC070200FD1F000004
:103A70000C000C009ED0AD10612F52EF553C0000A1
:103A800080B584B000AF3B1C0F3300221A700023B6
:103A9000BB6000237B6015E00120134B9847134B5C
:103AA000181C134B9847031CBB607B6801337B6079
:103AB0007A68FA239B009A4204D93B1C0F33FB22FD
:103AC0001A7008E0BA680B4B9A42E5D1074B181CF4
:103AD0000021094B98473B1C0F331B785BB2181C25
:103AE000BD4604B080BDC046FD1F00008C10000024
:103AF000113C000036265302553C000090B583B0BF
:103B000000AF00233B60FB1D0A221A70BC1DA023DE
:103B10005A013B1C101C191C274B9847031C23708F
:103B20003A68264B13403B603B68BC1DA022520103
:103B3000101C191C224B9847031C2370BB1D1B78BB
:103B40005BB2002B02D0BB1D1B7830E0BC1DA02354
:103B50005A013B1C101C191C174B9847031C23705F
:103B6000BB1D1B785BB2002B02D0BB1D1B781EE077
:103B70003A688023DB00134017D03A680F4B13409C
:103B80003B603B68BC1DA0225201101C191C0C4B51
:103B90009847031C2370FB1D1A78FB1D013A1A700D
:103BA000FB1D1B78002BD1D100E0C04600E05BB2CA
:103BB000181CBD4603B090BD313C0000FFFBFFFF69
:103BC000553C000090B583B000AFFB1D00221A7079
:103BD000FC1D054B9847031C2370FB1D1B785BB233
:103BE000181CBD4603B090BDDD25000080B582B035
:103BF00000AFFB1D00221A70044B9847FB1D1B7879
:103C00005BB2181CBD4602B080BDC046FD26000058
:103C100080B582B000AF78607B68181C034B984772
:103C2000031C181CBD4602B080BDC0465D4E00009E
:103C300080B582B000AF786039607A683B68101C4C
:103C4000191C034B9847031C181CBD4602B080BDCD
:103C5000814E000080B582B000AF786039607A682C
:103C60003B68101C191C034B9847031C181CBD46CD
:103C700002B080BDD14E000080B584B000AFF860C6
:103C8000B960BB1D1A80F968BA68BB1D1B88081C87
:103C9000111C1A1C034B9847031C181CBD4604B08A
:103CA00080BDC046214F000080B586B000AFF860EF
:103CB000B960BB1D1A80334B1A883B1C1233083A7B
:103CC0001A803B1C163300221A803B1C153300223D
:103CD0001A70BA1D3B1C123312881B889A4217D8DF
:103CE0003B1C16331B88BA68D218F968BB1D1B88A9
:103CF000081C111C1A1C244B9847031CDAB23B1CED
:103D000015331B78D318DAB23B1C15331A7030E028
:103D10003B1C16331B88BA68D218F9683B1C123357
:103D20001B88081C111C1A1C174B9847031CDAB27D
:103D30003B1C15331B78D318DAB23B1C15331A70B1
:103D4000BB1DB91D3A1C1232098812888A1A1A80C2
:103D50003B1C1633391C16313A1C12320988128862
:103D60008A181A803B1C12331B88FA68D318FB6030
:103D7000AFE73B1C15331B785BB2181CBD4606B081
:103D800080BDC04600000020793C000080B584B0B2
:103D900000AFF860B960BB1D1A80F968BA68BB1D36
:103DA0001B88081C111C1A1C034B9847031C181C69
:103DB000BD4604B080BDC0467D4F000080B586B0D2
:103DC00000AFF860B960BB1D1A80334B1A883B1CEA
:103DD0001233083A1A803B1C163300221A803B1C0F
:103DE000153300221A70BA1D3B1C123312881B882F
:103DF0009A4217D83B1C16331B88BA68D218F96848
:103E0000BB1D1B88081C111C1A1C244B9847031C43
:103E1000DAB23B1C15331B78D318DAB23B1C1533CE
:103E20001A7030E03B1C16331B88BA68D218F96848
:103E30003B1C12331B88081C111C1A1C174B98477B
:103E4000031CDAB23B1C15331B78D318DAB23B1CC7
:103E500015331A70BB1DB91D3A1C1232098812881D
:103E60008A1A1A803B1C1633391C16313A1C12323E
:103E7000098812888A181A803B1C12331B88FA683A
:103E8000D318FB60AFE73B1C15331B785BB2181CE3
:103E9000BD4606B080BDC046000000208D3D00003C
:103EA00090B585B000AF3B1C0F3300221A70002381
:103EB000BB603C1C0F343B1D0120191C384B98473C
:103EC000031C23703B1C0F331B785BB2002B00D00C
:103ED0005EE07B68022213430120191C314B984796
:103EE000314B1A683C1C0F343B1C101C191C2C4B0A
:103EF0009847031C23703B1C0F331B785BB2002BCD
:103F000008D13B1C0F331B785BB2002B17D13B68E9
:103F1000002B14D1244B0E221A60234B1A683C1C30
:103F20000F343B1C101C191C1D4B9847031C23709D
:103F30003B1C0F331B785BB2002B00D028E009E05C
:103F400001201A4B9847184B1A683B1C101C191C6F
:103F5000134B98473A68042313400AD1BB680133D6
:103F6000BB60BA68124B101C032198470B1C002B36
:103F7000E6D03A680423134006D17B68022213433B
:103F80000120191C074B98473A6804231340A0D01E
:103F90003B1C0F331B785BB2181CBD4605B090BDAF
:103FA000313C0000553C000004000020FD1F0000D3
:103FB000158D000090B583B000AFFB1D00221A7074
:103FC000FC1D0A4B9847031C2370FB1D1B785BB23A
:103FD000002B02D0FB1D1B7803E0054B9847FB1D0F
:103FE0001B785BB2181CBD4603B090BDA13E00001B
:103FF0008135000090B585B000AF3B1C0F33002227
:104000001A700023BB60A5235A01BB68101C191C41
:10401000104B9847BB68002B17D000237B603C1CDB
:104020000F34A5235A013B1D101C191C0A4B98473D
:10403000031C23703B1C0F331B785BB2002B03D196
:104040007A68BB689A4201D0DDE7C046BD4605B03C
:1040500090BDC046553C0000313C000090B589B091
:1040600000AF78603B1C1F3300221A700023BB6135
:1040700000237B613C1C1F343C4B9847031C23707E
:104080003B1C1F331B785BB2002B00D066E03C1C4E
:104090001F34374B9847031C23703B1C1F331B787E
:1040A0005BB2002B00D057E03C1C1F34314B9847CB
:1040B000031C23703B1C1F331B785BB2002B00D00A
:1040C0004AE02D4B98472D4B98473C1C1F342C4BF6
:1040D0009847031C23703B1C1F331B785BB2002BDB
:1040E00000D039E03C1C1F34264B9847031C23703A
:1040F0003B1C1F331B785BB2002B00D02CE03C1C18
:104100001F34214B9847031C23703B1C1F331B7823
:104110005BB2002B00D01FE03C1C1F341B4B9847A8
:10412000031C23703B1C1F331B785BB2002B00D099
:1041300012E0174B98473B1C0C33181C154B984743
:10414000031C1A1C0D3203D13B1C1F33F3221A70BF
:104150003B1C1F331B7804E00F4B98473B1C1F335D
:104160001B785BB2181CBD4609B090BDC53B000072
:10417000B53F000065390000254E000045350000C0
:1041800091360000B9390000813A0000D9350000AD
:10419000F53F0000F1410000ED3B000090B585B017
:1041A00000AF78603C1C0F340F4B9847031C237002
:1041B0003B1C0F331B785BB2002B00D00CE03C1C87
:1041C0000F340A4B9847031C23703B1C0F331B789A
:1041D0005BB2002B00D0C0463B1C0F331B785BB298
:1041E000181CBD4605B090BDFD3A0000ED3B000037
:1041F00090B585B000AF78600023BB603B1C0F33E7
:1042000000221A703C1C0F34154A3B1C0833101C4A
:10421000191C144B9847031C2370BB681B0C9AB2E3
:104220007B681A80BB689AB27B685A800E4B9847AD
:10423000021C7B685A607B681B88102B07D07B6848
:104240005B88002B03D03B1C0F33F3221A703B1CFE
:104250000F331B785BB2181CBD4605B090BDC0463D
:10426000AC070200313C0000B137000080B586B0D9
:1042700000AF78600A1CBB1C1A803B1C0C33002268
:104280001A603B1C0C337A685A603B1C0C33BA1C16
:1042900012881A813B1C0C330320191C034B9847CE
:1042A000031C181CBD4606B080BDC0469D260000FC
:1042B00080B586B000AF78600A1CBB1C1A803B1C1E
:1042C0000C337A681A603B1C0C3300225A603B1C8A
:1042D0000C33BA1C12881A813B1C0C330320191CA6
:1042E000034B9847031C181CBD4606B080BDC04652
:1042F0009D26000080B586B000AFB9607A603B1C97
:104300000F33021C1A703B1C123309221A703B1C1B
:1043100013333A1C0F3212781A703B1C16330022EA
:104320001A804CE03B1C143300221A803BE03B1CFB
:1043300016331B88BA68D3181B781A1C3B1C14331D
:104340001B889A4080231340DB11DAB23B1C1333E5
:104350001B789B09DBB2DBB2191C01230B40DBB2DB
:104360005340DAB23B1C11331A703B1C13331B78D9
:104370005B00DBB21A1C7F231340DAB23B1C123302
:10438000391C11311B7809784B43DBB2DBB2534047
:10439000DAB23B1C13331A703B1C14331A883B1CD3
:1043A000143301321A803B1C14331B88072BBED9EF
:1043B0003B1C16331A883B1C163301321A803B1CF7
:1043C00016331A887B689A42ACDB3B1C13331B788C
:1043D000181CBD4606B080BD90B589B000AFB9606D
:1043E0007A603B603B1C0F33021C1A703B1C1F336E
:1043F00005221A703B1C1E3301221A703B1C143319
:104400003A1C0F3212781A703B1C0F331B78C13BD9
:104410000E2B00D91BE19A00A94BD3181B689F46AD
:10442000BB681B0CDAB23B1C14335A70BB681B0A06
:10443000DAB23B1C14339A70BB68DAB23B1C1433FB
:10444000DA703B1C1F3305221A7005E1BB681B0A9A
:10445000DAB23B1C14335A703B1C30331B78002BF0
:1044600009D03B1C14335B78802252421343DAB2EA
:104470003B1C14335A70BB68DAB23B1C14339A707D
:104480003B1C14330022DA703B1C1F3305221A70C8
:10449000E2E03B1C143300225A703B1C1433002210
:1044A0009A703B1C14330022DA703B1C1F33052228
:1044B0001A70D1E03B1C143300225A703B1C143399
:1044C00000229A703B1C14330022DA703B1C1F330D
:1044D00005221A70C0E03B1C1433FF225A703B1CAB
:1044E0001433FF229A703B1C1433FF22DA703B1CFA
:1044F0001F3305221A70AFE0BB681B0CDAB23B1CFD
:1045000014335A70BB681B0ADAB23B1C14339A701E
:10451000BB68DAB23B1C1433DA703B681B0ADAB2B0
:104520003B1C14331A713B68DAB23B1C14335A71CA
:104530003B1C1F3307221A708EE0BB681B0CDAB2DB
:104540003B1C14335A70BB681B0ADAB23B1C143391
:104550009A70BB68DAB23B1C1433DA703B681B0CF0
:10456000DAB23B1C14331A713B681B0ADAB23B1CEB
:1045700014335A713B68DAB23B1C14339A713B1CFA
:104580001F3308221A7067E0BB681B0ADAB23B1CB3
:1045900014335A703B1C30331B78002B09D03B1C62
:1045A00014335B78802252421343DAB23B1C14333B
:1045B0005A70BB68DAB23B1C14339A707B681B0ECE
:1045C000DAB23B1C1433DA707B681B0CDAB23B1C8A
:1045D00014331A717B681B0ADAB23B1C14335A710C
:1045E0007B68DAB23B1C14339A713B1C1F330822E0
:1045F0001A7031E0BB681B0CDAB23B1C14335A70E2
:10460000BB681B0ADAB23B1C14339A70BB68DAB27F
:104610003B1C1433DA707B681B0EDAB23B1C14337C
:104620001A717B681B0CDAB23B1C14335A717B681D
:104630001B0ADAB23B1C14339A717B68DAB23B1C5A
:104640001433DA713B1C1F3309221A7004E03B1C3F
:104650001E3300221A70C0463B1C1E331B785BB20F
:10466000002B25D03B1C1F331B785C1E3B1C1F33CB
:104670001B78013B3A1C14327F20111C1A1C114B71
:104680009847031CDB18DAB23B1C14331A553B1C49
:104690001F331B789BB23A1C1432101C191C0A4B96
:1046A0009847031C002B03D03B1C1E3300221A70BA
:1046B0003B1C1E331B785BB2181CBD4609B090BD75
:1046C000E0FB0000F5420000B142000080B584B07C
:1046D00000AF021CFB1D1A703B1C0F3301221A7025
:1046E000FB1D1B78CF2B07D0FB1D1B78C52B03D0E0
:1046F000FB1D1B78C62B0DD13B1C0D33181C012153
:104700002B4B9847031C002B04D03B1C0F3300227B
:104710001A7045E03B1C0E330A221A703B1C0D3305
:10472000181C0121224B9847031C002B04D03B1C72
:104730000F3300221A7033E03B1C0D331B78FA1D37
:1047400012789A420AD03B1C0E331B783A1C0E3268
:10475000191C013911705BB2002BDFDC3B1C0E33DE
:104760000A221A703B1C0D33181C0121104B98476C
:10477000031C002B04D03B1C0F3300221A700FE0E7
:104780003B1C0D331B78002B0AD03B1C0E331B78CF
:104790003A1C0E32191C013911705BB2002BE1DC9E
:1047A0003B1C0F331B785BB2181CBD4604B080BDA8
:1047B0006D42000080B586B000AF7860BB1C1980E8
:1047C0007B1C1A703B1C113301221A703B1C1433E2
:1047D00000221A80BB1C1A8880239B019A4205D8AC
:1047E0003B1C1233BA1C12881A8004E03B1C1233A3
:1047F000802292011A803B1C16330A221A803B1C2D
:104800000B33181C01213C4B9847031C002B04D090
:104810003B1C113300221A7014E03B1C0B331B7835
:104820001B09DBB21A1C0F2313400F2B00D109E028
:104830003B1C16331B883A1C1632191C0139118097
:10484000002BDCD13B1C11331B785BB2002B00D159
:1048500049E03B1C163300229B5E002B04DC3B1C12
:10486000113300221A703EE03B1C143300229B5E81
:104870007A68D2183B1C12331B88101C191C1E4B63
:104880009847031C002B04D03B1C113300221A70E4
:1048900029E07B1C1B78002B0DD13B1C0C33181C12
:1048A0000221154B9847031C002B04D03B1C1133ED
:1048B00000221A7017E03B1C14331A883B1C123379
:1048C0001B88D3189AB23B1C14331A803B1C12333A
:1048D0001A88BB1CB91C09888A1A1A80BB1C1B8841
:1048E000002B00D076E73B1C11331B785BB2181C01
:1048F000BD4606B080BDC0466D42000080B586B0A2
:1049000000AF78600A1CBB1C1A803B1C13330122C9
:104910001A703B1C0C3300221A803B1C16330022F9
:104920001A80BB1C1A8880239B019A4205D83B1C25
:104930001433BA1C12881A8004E03B1C1433802202
:1049400092011A803B1C1133F0221A703B1C163363
:1049500000229B5E002B0FD1BB1C1A8880239B0179
:104960009A4204D83B1C123303221A7013E03B1CFA
:10497000123301221A700EE0BB1C1A8880239B019F
:104980009A4204D83B1C123303221A7003E03B1CEA
:10499000123302221A703B1C11331A783B1C12335B
:1049A0001B781343DAB23B1C11331A703B1C1133D2
:1049B000181C0121264B9847031C002B04D03B1CDC
:1049C000133300221A703AE03B1C163300229B5E20
:1049D0007A68D2183B1C14331B88101C191C1C4B02
:1049E0009847031C002B04D03B1C133300221A7081
:1049F00025E03B1C0C33181C0221154B9847031C67
:104A0000002B04D03B1C133300221A7017E03B1C10
:104A100016331A883B1C14331B88D3189AB23B1CDC
:104A200016331A80BB1CB91C3A1C14320988128830
:104A30008A1A1A80BB1C1B88002B00D071E73B1C14
:104A400013331B785BB2181CBD4606B080BDC04650
:104A5000B1420000B0B586B002AF786039603B1C4F
:104A60000D3301221A703B1C0F33C9221A703B1CF4
:104A70000E3300221A707B68302B08D83B1C0F3392
:104A8000C3221A703B1C0E3301221A7007E03B1C34
:104A90000F33C9221A703B1C0E3300221A703C1CC3
:104AA0000D343B1C0F3319787A683B68381C0E3084
:104AB00000780090081C111C1A1C0423154DA847EF
:104AC000031C23703B1C0D331B785BB2012B01D000
:104AD00000231AE03C1C0D343B1C0F331B78181CC0
:104AE0000D4B9847031C23703B1C0D331B785BB2A6
:104AF000012B09D000230093CF20002100220023A6
:104B0000044CA047002300E001235BB2181CBD4603
:104B100004B0B0BDD9430000CD460000B0B588B0A8
:104B200002AFF860B960BB1D1A803B1C1733C72267
:104B30001A70BB1D1B883C1C16343A1C17321178A6
:104B4000FA6800200090081C111C0022224DA84782
:104B5000031C23703B1C16331B785BB2012B01D066
:104B6000002333E03C1C16343B1C17331B78181C05
:104B70001A4B9847031C23703B1C16331B785BB2FF
:104B8000012B09D000230093CF2000210022002315
:104B9000114CA047002319E03C1C1634BA68BB1D19
:104BA0001B88101C191C0E4B9847031C23703B1CC0
:104BB00016331B785BB2012B07D000230093CF2064
:104BC000002100220023044CA04701235BB2181CE3
:104BD000BD4606B0B0BDC046D9430000CD4600007A
:104BE000FD480000B0B586B002AF786039603B1C6C
:104BF0000D3301221A703B1C0F33CA221A703B1C62
:104C00000E3300221A707B68FF2B08D83B1C0F3331
:104C1000C4221A703B1C0E3301221A7007E03B1CA1
:104C20000F33CA221A703B1C0E3300221A703C1C30
:104C30000D343B1C0F331A787B68391C0E31097810
:104C40000091101C191C002204232F4DA847031C9F
:104C500023703B1C0D331B785BB2012B01D000236A
:104C60004DE03C1C0D343B1C0F331B78181C274BAC
:104C70009847031C23703B1C0D331B785BB2012B40
:104C800009D000230093CF200021002200231E4CD6
:104C9000A047002333E03C1C0D343A1C08323B1C77
:104CA0000E331B78101C04211A1C194B9847031C47
:104CB00023703B1C0D331B785BB2012B09D0002302
:104CC0000093CF200021002200230F4CA047002397
:104CD00015E03B1C08331B781A1C3B1C08335B781F
:104CE0001B021A433B1C08339B781B041A433B1CD2
:104CF0000833DB781B061A433B681A6001235BB25A
:104D0000181CBD4604B0B0BDD9430000CD4600001C
:104D1000B5470000B0B588B002AFF860B960BB1D00
:104D20001A803B1C1733C8221A70BB1D1B883C1C01
:104D300016343A1C17321178FA6800200090081CCB
:104D4000111C0022234DA847031C23703B1C163363
:104D50001B785BB2012B01D0002336E03C1C1634DB
:104D60003B1C17331B78181C1B4B9847031C2370E4
:104D70003B1C16331B785BB2012B09D00023009338
:104D8000CF20002100220023124CA04700231CE06A
:104D90003C1C1634BA68BB1D1B88101C191C002251
:104DA0000E4B9847031C23703B1C16331B785BB2D9
:104DB000012B09D000230093CF20002100220023E3
:104DC000044CA047002300E001235BB2181CBD4641
:104DD00006B0B0BDD9430000CD460000B547000085
:104DE00080B582B000AF0C4B181C0C4B9847031CCD
:104DF0007B607B68702293437B607B685022134307
:104E00007B60C046044A7B68101C191C044B984701
:104E1000BD4602B080BDC04624E800005D4E0000E3
:104E2000D14E000080B582B000AF80235A013B1DF7
:104E3000101C191C074B9847031C002B01D1FA23A7
:104E400002E0054B984700235BB2181CBD4602B038
:104E500080BDC046E54B0000E14D000080B584B048
:104E600000AF78607A683B1C0C33101C191C034B94
:104E70009847FB68181CBD4604B080BDE54B000098
:104E800090B585B000AF786039603C1C0F347A680B
:104E90003B68101C191C0D4B9847031C23703B1CCE
:104EA0000F331B785BB2012B04D13B1C0F33002264
:104EB0001A7003E03B1C0F33FA221A703B1C0F33AD
:104EC0001B785BB2181CBD4605B090BDE54B0000D9
:104ED00090B585B000AF786039603C1C0F347A68BB
:104EE0003B68101C191C0D4B9847031C23703B1C7E
:104EF0000F331B785BB2012B04D13B1C0F33002214
:104F00001A7003E03B1C0F33FA221A703B1C0F335C
:104F10001B785BB2181CBD4605B090BD554A000019
:104F200090B587B000AFF860B960BB1D1A803C1C1B
:104F30001734F968BA68BB1D1B88081C111C1A1CA1
:104F40000D4B9847031C23703B1C17331B785BB237
:104F5000012B04D13B1C173300221A7003E03B1CC9
:104F60001733FA221A703B1C17331B785BB2181CDC
:104F7000BD4607B090BDC046154D000090B587B046
:104F800000AFF860B960BB1D1A803C1C1734F9688B
:104F9000BA68BB1D1B88081C111C1A1C0D4B9847B6
:104FA000031C23703B1C17331B785BB2012B04D10D
:104FB0003B1C173300221A7003E03B1C1733FA2204
:104FC0001A703B1C17331B785BB2181CBD4607B028
:104FD00090BDC0461D4B000080B582B000AF3B1CA9
:104FE0009F221A70174B181C0421174B98473B1C23
:104FF0001B78164A101C191C134B9847144B181C8D
:105000000121114B9847134A134B101C191C0E4BCE
:105010009847124B181C81210B4B9847C046104BE8
:10502000181C104B9847031C012BF8D10A4B181C75
:105030000C4B9847031C7B607B68181CBD4602B074
:1050400080BDC04608020100553C00000C02010072
:10505000140201001C02010084100000040201007F
:1050600018020100113C000080B584B000AF184B5D
:10507000181C184B9847031CFB60FB68BB60BA68A0
:10508000154B1A40154B9A420DD0FA68144B134039
:10509000FB60FB68114A1343FB600D4AFB68101C60
:1050A000191C104B9847104B9847031C7B60BA683B
:1050B000094B1A40094B9A4205D0054ABB68101C9F
:1050C000191C084B98477B68181CBD4604B080BD6E
:1050D00008140000113C000000F0FF0F0010110147
:1050E000FF0F00F0553C0000D94F000080B586B09E
:1050F00000AFB9607B603B1C0F33011C19703B1C77
:105100000E331A703B1C20331B88002B00D17FE02C
:105110007B687B613B1C24331B78002B04D1BB686C
:105120003A1C20321288DA803B1C12333A1C20329F
:1051300012881A803B1C0F331B785BB2364ADB00A7
:10514000D3185B689BB23A1C123212889A420AD971
:105150003B1C0F331B785BB23A1C12322E49DB002A
:10516000CB185B6813803B1C0F3300229A562A4BE6
:10517000D200D25879693B1C12331B88081C111CC1
:105180001A1C264B9847031C002B40D13B1C243390
:105190001B78002B25D13B1C0F3300229A561E4B47
:1051A000D200D258BB681A603B1C12331A88BB6805
:1051B0009A80BB68DA883B1C12331B88D31A9AB2D8
:1051C000BB68DA80164B1B68002B0AD0144B1B6897
:1051D0003A1C0F32002010563A1C0E321178BA6871
:1051E00098473B1C2033391C20313A1C1232098865
:1051F00012888A1A1A803B1C12331B887A69D318CA
:105200007B613B1C20331B88002B8DD100E0C04606
:10521000BD4606B080BDC046DC0F0020D12D000089
:105220003410002090B5B3B002AF3A601A1CFB1DD9
:1052300018703B1D1980BB1D1A70FB1D1B78412B7C
:1052400021D13A683B1CB033101C191C0422724B4C
:105250009847031C002B15D13B1CB0335A783B1CDC
:10526000AC331A706D4B1B68002B0BD06B4B1B685B
:105270003A1CB032127851B23A1CAC32081C0121EF
:105280009847F6E1F5E1FB1D1B78422B21D13A68E6
:105290003B1CA833101C191C04225F4B9847031CAD
:1052A000002B15D13B1CA8335A783B1CA4331A7031
:1052B0005A4B1B68002B0BD0584B1B683A1CA8326A
:1052C000127851B23A1CA432081C02219847D0E14E
:1052D000CFE1FB1D1B78432B49D13A683B1C983327
:1052E000101C191C0C224C4B9847031C002B3DD161
:1052F0003B1C98335B7A5BB2002B11DB3B1C983371
:105300005B7A5BB2464ADB00D3180022DA713B1CA1
:1053100098335B7A5BB2424ADB00D31801229A7160
:105320003B1C98335A7A3B1C84331A703B1C8433E1
:1053300002229A803B1C98335A883B1C8433DA80C3
:105340003B1C98335A683B1C84339A60334B1B6870
:10535000002B0BD0314B1B683A1C9832127A51B299
:105360003A1C8432081C0421984782E181E1FB1D2C
:105370001B78442B03D0FB1D1B784B2B27D13A689D
:105380003B1C8033101C191C0422234B9847031C20
:10539000002B1BD13B1C80331A783B1C7C331A70CA
:1053A0003B1C80335A783B1C7C335A701B4B1B6868
:1053B000002B0BD0194B1B683A1C8032127851B26B
:1053C0003A1C7C32081C0521984752E151E1FB1D33
:1053D0001B784A2B28D13A683B1C0833101C191C37
:1053E00044220D4B9847031C002B14D13B1C08335F
:1053F0001A6C3B1C08331A640A4B1B68002B0AD03A
:10540000084B1A683B1C08331B6C391C0831081CFC
:10541000191C90472DE12CE1D12D00003410002003
:10542000DC0F002038100020FB1D1B78462B08D015
:10543000FB1D1B78482B04D0FB1D1B784D2B00D087
:10544000D8E03B1CBF3306221A70FB1D1B78482B8B
:1054500003D13B1CBF3309221A703B1CBA33102204
:105460001A8039683A1C6C323B1CBA331B88081C02
:10547000111C1A1C804B9847031C002B00D0B8E06D
:105480003B1CBA331B883A68D3183B603B1D391D5F
:105490003A1CBA32098812888A1A1A803B1CB9331E
:1054A0003A1C6C32127B1A703B1CB6333A1C6C32BD
:1054B00012891A803B1CB4333A1C6C3252891A8010
:1054C0003B1C6C335A883B1C54335A813B1C6C3355
:1054D0005A683B1C5433DA603B1CB63300229B5E97
:1054E000002B6BDD3B1CBA33391CB4313A1CBA3289
:1054F000098812888A1A1A803B1CB9330020185672
:10550000391C54313B1CBF331A783B683C1CBA34FD
:105510002488009401240194584CA0473B1CBA33C2
:105520001B883A68D3183B603B1D391D3A1CBA32C0
:10553000098812888A1A1A803B1CBA333A1CB63280
:1055400012881A803B1CB93300201856391C54317C
:105550003B1CBF331A783B683C1CBA342488009447
:1055600000240194454CA0473B1CBA331B883A6881
:10557000D3183B603B1D391D3A1CBA32098812888A
:105580008A1A1A803B1D1B88002B32D03B1CBA3371
:105590003A1D12881A803B1CB93300201856391C5A
:1055A00054313B1CBF331A783B683C1CBA34248806
:1055B000009401240194314CA0475AE03B1C543321
:1055C0003A1CB63212889A803B1C543300221A606F
:1055D0002B4B1B68002B0CD0294B1B683A1CB93293
:1055E000002010563A1CBF3211783A1C54329847AA
:1055F0003FE03EE0FB1D1B78452B07D0FB1D1B78D1
:10560000472B03D0FB1D1B784C2B32D13B1CBE33E8
:1056100007221A70FB1D1B78472B03D13B1CBE339E
:1056200008221A703A683B1C4C33101C191C0422C7
:10563000114B9847031C002B1BD13B1CBD333A1C5C
:105640004C3212781A703B1C4C335A883B1C523334
:105650001A800B4B1B68002B0BD0094B1B683A1CA4
:10566000BD32002010563A1CBE3211783A1C52321C
:105670009847BD4631B090BDD12D0000ED500000DF
:105680003410002080B500AF054B181C00215822B3
:10569000044B9847044B181C044B9847BD4680BDEB
:1056A000DC0F00204127000025520000852E00005D
:1056B00080B582B000AF78603960044B7A681A60B8
:1056C000034B3A681A60BD4602B080BD341000201A
:1056D0003810002080B584B000AFBB1D18807B1D42
:1056E00019703B1D1A703B1C0F33FF221A703B1CB4
:1056F0000D330B221A70BB1D1B88022B55D17B1D4D
:105700001B78012B08D13B1C0D3307221A703B1C60
:105710000E3300221A7010E07B1D1B78022B08D17B
:105720003B1C0D330B221A703B1C0E3307221A70E0
:1057300003E03B1C0F331B783AE02EE03B1C0E339A
:105740001B781E4ADB00D3185B681B021B0EDBB202
:10575000002B1BD13B1C0E331B78184ADB00D318DF
:1057600001229A713B1D1A780123134007D03B1C7C
:105770000E331B78114ADB00D3180122DA713B1C6F
:105780000F333A1C0E3212781A700EE03B1C0E33A7
:105790001A783B1C0E3301321A703A1C0E323B1C35
:1057A0000D3312781B789A42C8D33B1C0F331B78F9
:1057B0005BB2181CBD4604B080BDC046DC0F0020A3
:1057C000B0B58AB004AF3960FB1D011C1970BB1D58
:1057D0001A703B1C1733FA221A703B68002B3ED01C
:1057E000FB1D1B787F2B3AD83B1C0833FA1D12781F
:1057F0001A723A1C08323B68101C191C08221C4BF8
:1058000098473B1C08331A883B1C08331A803B1C02
:1058100008335A883B1C08335A803B1C08335A68AB
:105820003B1C08335A603C1C17343B1C08330022D5
:1058300000920022019200220292022041211A1CB1
:105840000C230C4DA847031C23703B1C17331B78FB
:105850005BB2002B03D03B1C1733F7221A703B1CA2
:1058600017331B785BB2181CBD4606B0B0BDC046EE
:1058700005270000F528000090B58FB004AFB9608F
:10588000111C1A1C3B1C0F3318703B1C0C33198065
:10589000BB1D1A803B1C2633062252421A803B1C39
:1058A0000F331B787F2B5DD8BB68002B5AD03B1C75
:1058B0000C331A88AF23DB009A4253D83B1C0F33BA
:1058C0001B785BB22B4ADB00D3185B681B021B0EF4
:1058D000DBB2002B46D03B1C1433181C00210C22D9
:1058E000254B98473B1C14333A1C0F3212781A7020
:1058F0003B1C14333A1C0C3212885A80BB6B002BB1
:1059000010D0BB6B3B623B6A1A883B1C14339A80F5
:105910003B6A5A883B1C1433DA803B6A5A683B1C4A
:1059200014339A603B1C1433BA6800923A1C0C3250
:1059300012880192482202920220C7211A1C0C23CD
:105940000E4CA047031C1A1C3B1C26331A803B1C20
:10595000263300229B5E002B04D03B1C26330E22F4
:1059600052421A803B1C26331B881BB2181CBD46B2
:105970000BB090BDDC0F002041270000F52800008F
:1059800090B58DB004AFB9607B603B1C0F33011C38
:1059900019703B1C0C331A803B1C1E3300221A80EA
:1059A0003B1C0F331B787F2B5AD8BB68002B57D07A
:1059B0003B1C0C331B88002B52D03B1C0F331B7835
:1059C0005BB22E4ADB00D3185B681B021B0EDBB2F6
:1059D000002B44D03B1C0F3300229A56274BD20099
:1059E000B968D1503B1C0F331B785BB22349DB00F5
:1059F0003A1C0C32CB1812889A807B68002B05D198
:105A00003B1C1433012252421A6003E03B1C143346
:105A10007A681A603B1C14333A1C0F3212781A71E0
:105A20003B1C1433002200920022019200220292B9
:105A3000022048211A1C0823114CA047031C1A1CE1
:105A40003B1C1E331A803B1C1E3300229B5E002B26
:105A500005D03B1C1E330E2252421A8005E004E0A2
:105A60003B1C1E33062252421A803B1C1E331B88ED
:105A70001BB2181CBD4609B090BDC046DC0F00200B
:105A8000F528000080B582B000AF78607B68002BFD
:105A90000CD0084B7A685A60064B00229A60C046C8
:105AA000044B1A6880235B021340F9D0BD4602B054
:105AB00080BDC04610E000E080B500AF0020104B74
:105AC0009847021C0F4B1A600E4B1A680E4B101CA5
:105AD000FA2291009847031C1A1C0A4B1A60094BC2
